{
  "contractName": "Crowdsale",
  "abi": [
    {
      "inputs": [],
      "payable": false,
      "stateMutability": "nonpayable",
      "type": "constructor"
    },
    {
      "constant": false,
      "inputs": [],
      "name": "invest",
      "outputs": [],
      "payable": true,
      "stateMutability": "payable",
      "type": "function"
    },
    {
      "constant": false,
      "inputs": [
        {
          "name": "newPhase",
          "type": "uint256"
        }
      ],
      "name": "setPhase",
      "outputs": [],
      "payable": false,
      "stateMutability": "nonpayable",
      "type": "function"
    },
    {
      "constant": false,
      "inputs": [
        {
          "name": "newOwner",
          "type": "address"
        }
      ],
      "name": "setOwner",
      "outputs": [],
      "payable": false,
      "stateMutability": "nonpayable",
      "type": "function"
    },
    {
      "constant": false,
      "inputs": [],
      "name": "withdraw",
      "outputs": [],
      "payable": false,
      "stateMutability": "nonpayable",
      "type": "function"
    },
    {
      "constant": false,
      "inputs": [],
      "name": "refund",
      "outputs": [],
      "payable": false,
      "stateMutability": "nonpayable",
      "type": "function"
    }
  ],
  "bytecode": "0x608060405269021e19e0c9bab2400000600055600060015534801561002357600080fd5b5062278d00420160028190555033600360006101000a81548173ffffffffffffffffffffffffffffffffffffffff021916908373ffffffffffffffffffffffffffffffffffffffff1602179055506103b6806100806000396000f30060806040526004361061006d576000357c0100000000000000000000000000000000000000000000000000000000900463ffffffff16806313af4035146100725780632cc82655146100b55780633ccfd60b146100e2578063590e1ae3146100f9578063e8b5e51f14610110575b600080fd5b34801561007e57600080fd5b506100b3600480360381019080803573ffffffffffffffffffffffffffffffffffffffff16906020019092919050505061011a565b005b3480156100c157600080fd5b506100e06004803603810190808035906020019092919050505061015e565b005b3480156100ee57600080fd5b506100f76101af565b005b34801561010557600080fd5b5061010e61022d565b005b61011861030b565b005b80600360006101000a81548173ffffffffffffffffffffffffffffffffffffffff021916908373ffffffffffffffffffffffffffffffffffffffff16021790555050565b600181148015610172575060005460015410155b8061019a575060028114801561018b5750600054600154105b801561019957506002544210155b5b15156101a557600080fd5b8060058190555050565b60016005541415156101c057600080fd5b600360009054906101000a900473ffffffffffffffffffffffffffffffffffffffff1673ffffffffffffffffffffffffffffffffffffffff166108fc6001549081150290604051600060405180830381858888f1935050505015801561022a573d6000803e3d6000fd5b50565b600260055414151561023e57600080fd5b3373ffffffffffffffffffffffffffffffffffffffff166108fc600460003373ffffffffffffffffffffffffffffffffffffffff1673ffffffffffffffffffffffffffffffffffffffff168152602001908152602001600020549081150290604051600060405180830381858888f193505050501580156102c3573d6000803e3d6000fd5b506000600460003373ffffffffffffffffffffffffffffffffffffffff1673ffffffffffffffffffffffffffffffffffffffff16815260200190815260200160002081905550565b60006005541480156103205750600054600154105b151561032b57600080fd5b34600460003373ffffffffffffffffffffffffffffffffffffffff1673ffffffffffffffffffffffffffffffffffffffff16815260200190815260200160002060008282540192505081905550346001600082825401925050819055505600a165627a7a723058201ef2eb309532d0b4a13f68d63f6c5a1808657456c5f4b1a1ecac33e629bf86eb0029",
  "source": "contract Crowdsale {\n  uint256 goal = 10000 * 10**18;\n  uint256 raised = 0;\n  uint256 closeTime;  \n  address owner; \n  mapping(address => uint256) deposits;\n  uint256 phase; // 0: active, 1: success, 2: refund\n\n  constructor() public {\n    closeTime = now + 30 days;\n    owner = msg.sender;\n  }\n\n  function invest() public payable {\n    require(phase == 0 && raised < goal);\n    deposits[msg.sender] += msg.value;  \n    raised += msg.value; \n  }\n\n  function setPhase(uint256 newPhase) public {\n    require((newPhase == 1 && raised >= goal) ||\n            (newPhase == 2 && raised < goal\n              && now >= closeTime));\n    phase = newPhase;\n  }\n  \n  function setOwner(address newOwner) public {\n    // require(msg.sender == owner);\n    owner = newOwner;  \n  }\n\n  function withdraw() public {\n    require(phase == 1);\n    owner.transfer(raised);\n  }\n\n  function refund() public {\n    require(phase == 2);\n    msg.sender.transfer(deposits[msg.sender]);\n    deposits[msg.sender] = 0;\n  }\n}",
  "sourcePath": "/root/go/src/rlf/example/crowdsale/contracts/crowdsale.sol",
  "compiler": {
    "name": "solc",
    "version": "0.4.25+commit.59dbf8f1.Emscripten.clang"
  },
  "schemaVersion": "3.4.3",
  "updatedAt": "2022-04-24T11:31:50.655Z",
  "networkType": "ethereum",
  "devdoc": {
    "methods": {}
  },
  "userdoc": {
    "methods": {}
  }
}